:1000000012C02CC02BC02AC029C028C027C026C0BF
:1000100025C0BBC023C080C021C020C01FC01EC0DF
:100020001DC01CC01BC011241FBECFE5D4E0DEBF25
:10003000CDBF10E0A0E6B0E0E0E9F2E002C005903C
:100040000D92A638B107D9F720E0A6E8B0E001C0CC
:100050001D92A639B207E1F7C2D018C1D1CF0F93D4
:100060001F93CF93DF93CDB7DEB72C970FB6F894DD
:10007000DEBF0FBECDBFF89415BA18BA3091860016
:100080003C3008F044C0AE014F5F5F4FDA01232FD0
:10009000E22FF0E0E857FF4F90819D932F5F2C30C7
:1000A000B9F7231B032F330F110B10161106B4F4ED
:1000B000322F80E090E061E0630FFA01E30FF11D61
:1000C00037FDFA9588579F4FDC018C918083862FEE
:1000D000821B90E0362F801791076CF3FA01A0E69F
:1000E000B0E09E01235F3F4F81918D932E173F0714
:1000F000D9F71092860078942C960FB6F894DEBF4C
:100100000FBECDBFDF91CF911F910F91089520E0D9
:10011000AE014F5F5F4FC6CF1F920F920FB60F9287
:1001200011242F933F934F935F936F937F938F93FC
:100130009F93AF93BF93EF93FF939CB18091860001
:10014000E82F082E000CFF0BE857FF4F90838F5FBE
:100150008D30ACF4809386009F3FA9F0FF91EF9122
:10016000BF91AF919F918F917F916F915F914F91CF
:100170003F912F910F900FBE0F901F9018951092E6
:1001800086009F3F59F76BDFE9CF1F920F920FB6A2
:100190000F9211242F938F939F93EF93FF93E0E699
:1001A000F0E090E080E09695869521912111906293
:1001B00025812111806220E0E636F207A1F798BB85
:1001C00085BB81E08093870012BEFF91EF919F91E4
:1001D0008F912F910F900FBE0F901F90189589B798
:1001E000816089BF85E089B986E880BD88E98AB9E0
:1001F00083E083BF12BEEDE6F0E083E55D9BFECFBA
:100200008CB981918111FACF8FE384BB87BB15BA7A
:1002100018BA789441E050E0A3E09091870082B74B
:100220008917E9F382B78093870013BEE0E6F0E018
:1002300080E090E007C035812317C9F00196863031
:10024000910511F1682F3191209187003213F3CF7E
:1002500078B39A01082E01C0220F0A94EAF720957C
:10026000272328BB2091870035812313E7CF75B35F
:100270009A0101C0220F6A95EAF72095272325BB32
:10028000019686309105F1F6A3BFC7CFF894FFCF52
:100290000101010000000000000000005348414D32
:1002A000414E27732070726F6772616D6D205057D9
:0602B0004D3B290D0A0080
:00000001FF
